{
  "contractName": "ECommerce",
  "abi": [
    {
      "anonymous": false,
      "inputs": [
        {
          "indexed": false,
          "internalType": "uint256",
          "name": "id",
          "type": "uint256"
        },
        {
          "indexed": false,
          "internalType": "string",
          "name": "name",
          "type": "string"
        },
        {
          "indexed": false,
          "internalType": "uint256",
          "name": "price",
          "type": "uint256"
        },
        {
          "indexed": false,
          "internalType": "address",
          "name": "seller",
          "type": "address"
        }
      ],
      "name": "ProductAdded",
      "type": "event"
    },
    {
      "anonymous": false,
      "inputs": [
        {
          "indexed": false,
          "internalType": "uint256",
          "name": "orderId",
          "type": "uint256"
        },
        {
          "indexed": false,
          "internalType": "uint256",
          "name": "productId",
          "type": "uint256"
        },
        {
          "indexed": false,
          "internalType": "address",
          "name": "buyer",
          "type": "address"
        },
        {
          "indexed": false,
          "internalType": "uint256",
          "name": "quantity",
          "type": "uint256"
        },
        {
          "indexed": false,
          "internalType": "uint256",
          "name": "totalPrice",
          "type": "uint256"
        }
      ],
      "name": "ProductPurchased",
      "type": "event"
    },
    {
      "inputs": [],
      "name": "orderCount",
      "outputs": [
        {
          "internalType": "uint256",
          "name": "",
          "type": "uint256"
        }
      ],
      "stateMutability": "view",
      "type": "function"
    },
    {
      "inputs": [
        {
          "internalType": "uint256",
          "name": "",
          "type": "uint256"
        }
      ],
      "name": "orders",
      "outputs": [
        {
          "internalType": "uint256",
          "name": "id",
          "type": "uint256"
        },
        {
          "internalType": "uint256",
          "name": "productId",
          "type": "uint256"
        },
        {
          "internalType": "address",
          "name": "buyer",
          "type": "address"
        },
        {
          "internalType": "uint256",
          "name": "quantity",
          "type": "uint256"
        },
        {
          "internalType": "uint256",
          "name": "totalPrice",
          "type": "uint256"
        },
        {
          "internalType": "bool",
          "name": "isCompleted",
          "type": "bool"
        }
      ],
      "stateMutability": "view",
      "type": "function"
    },
    {
      "inputs": [],
      "name": "productCount",
      "outputs": [
        {
          "internalType": "uint256",
          "name": "",
          "type": "uint256"
        }
      ],
      "stateMutability": "view",
      "type": "function"
    },
    {
      "inputs": [
        {
          "internalType": "uint256",
          "name": "",
          "type": "uint256"
        }
      ],
      "name": "products",
      "outputs": [
        {
          "internalType": "uint256",
          "name": "id",
          "type": "uint256"
        },
        {
          "internalType": "string",
          "name": "name",
          "type": "string"
        },
        {
          "internalType": "string",
          "name": "description",
          "type": "string"
        },
        {
          "internalType": "uint256",
          "name": "price",
          "type": "uint256"
        },
        {
          "internalType": "address",
          "name": "seller",
          "type": "address"
        },
        {
          "internalType": "bool",
          "name": "isAvailable",
          "type": "bool"
        }
      ],
      "stateMutability": "view",
      "type": "function"
    },
    {
      "inputs": [
        {
          "internalType": "string",
          "name": "_name",
          "type": "string"
        },
        {
          "internalType": "string",
          "name": "_description",
          "type": "string"
        },
        {
          "internalType": "uint256",
          "name": "_price",
          "type": "uint256"
        }
      ],
      "name": "addProduct",
      "outputs": [],
      "stateMutability": "nonpayable",
      "type": "function"
    },
    {
      "inputs": [
        {
          "internalType": "uint256",
          "name": "_productId",
          "type": "uint256"
        },
        {
          "internalType": "uint256",
          "name": "_quantity",
          "type": "uint256"
        }
      ],
      "name": "purchaseProduct",
      "outputs": [],
      "stateMutability": "payable",
      "type": "function"
    },
    {
      "inputs": [
        {
          "internalType": "uint256",
          "name": "_productId",
          "type": "uint256"
        }
      ],
      "name": "getProduct",
      "outputs": [
        {
          "internalType": "uint256",
          "name": "id",
          "type": "uint256"
        },
        {
          "internalType": "string",
          "name": "name",
          "type": "string"
        },
        {
          "internalType": "string",
          "name": "description",
          "type": "string"
        },
        {
          "internalType": "uint256",
          "name": "price",
          "type": "uint256"
        },
        {
          "internalType": "address",
          "name": "seller",
          "type": "address"
        },
        {
          "internalType": "bool",
          "name": "isAvailable",
          "type": "bool"
        }
      ],
      "stateMutability": "view",
      "type": "function"
    },
    {
      "inputs": [
        {
          "internalType": "uint256",
          "name": "_orderId",
          "type": "uint256"
        }
      ],
      "name": "getOrder",
      "outputs": [
        {
          "internalType": "uint256",
          "name": "id",
          "type": "uint256"
        },
        {
          "internalType": "uint256",
          "name": "productId",
          "type": "uint256"
        },
        {
          "internalType": "address",
          "name": "buyer",
          "type": "address"
        },
        {
          "internalType": "uint256",
          "name": "quantity",
          "type": "uint256"
        },
        {
          "internalType": "uint256",
          "name": "totalPrice",
          "type": "uint256"
        },
        {
          "internalType": "bool",
          "name": "isCompleted",
          "type": "bool"
        }
      ],
      "stateMutability": "view",
      "type": "function"
    }
  ],
  "bytecode": "0x608060405234801561001057600080fd5b506111b1806100206000396000f3fe60806040526004361061007b5760003560e01c8063b9db15b41161004e578063b9db15b41461014b578063d09ef2411461018d578063e0f6ef87146101cf578063f28ea1c1146101fa5761007b565b80632453ffa8146100805780637acc0b20146100ab578063a0440426146100ed578063a85c38ef14610109575b600080fd5b34801561008c57600080fd5b50610095610223565b6040516100a29190610d60565b60405180910390f35b3480156100b757600080fd5b506100d260048036038101906100cd9190610bd5565b610229565b6040516100e496959493929190610d7b565b60405180910390f35b61010760048036038101906101029190610bfe565b6103a2565b005b34801561011557600080fd5b50610130600480360381019061012b9190610bd5565b610640565b60405161014296959493929190610e89565b60405180910390f35b34801561015757600080fd5b50610172600480360381019061016d9190610bd5565b6106a9565b60405161018496959493929190610d7b565b60405180910390f35b34801561019957600080fd5b506101b460048036038101906101af9190610bd5565b61083f565b6040516101c696959493929190610e89565b60405180910390f35b3480156101db57600080fd5b506101e46108c0565b6040516101f19190610d60565b60405180910390f35b34801561020657600080fd5b50610221600480360381019061021c9190610b56565b6108c6565b005b60035481565b60006020528060005260406000206000915090508060000154908060010180546102529061104b565b80601f016020809104026020016040519081016040528092919081815260200182805461027e9061104b565b80156102cb5780601f106102a0576101008083540402835291602001916102cb565b820191906000526020600020905b8154815290600101906020018083116102ae57829003601f168201915b5050505050908060020180546102e09061104b565b80601f016020809104026020016040519081016040528092919081815260200182805461030c9061104b565b80156103595780601f1061032e57610100808354040283529160200191610359565b820191906000526020600020905b81548152906001019060200180831161033c57829003601f168201915b5050505050908060030154908060040160009054906101000a900473ffffffffffffffffffffffffffffffffffffffff16908060040160149054906101000a900460ff16905086565b600080600084815260200190815260200160002090508060040160149054906101000a900460ff16610409576040517f08c379a000000000000000000000000000000000000000000000000000000000815260040161040090610d20565b60405180910390fd5b8181600301546104199190610f67565b34101561045b576040517f08c379a000000000000000000000000000000000000000000000000000000000815260040161045290610d40565b60405180910390fd5b6003600081548092919061046e9061107d565b91905055506040518060c0016040528060035481526020018481526020013373ffffffffffffffffffffffffffffffffffffffff1681526020018381526020018383600301546104be9190610f67565b815260200160011515815250600160006003548152602001908152602001600020600082015181600001556020820151816001015560408201518160020160006101000a81548173ffffffffffffffffffffffffffffffffffffffff021916908373ffffffffffffffffffffffffffffffffffffffff160217905550606082015181600301556080820151816004015560a08201518160050160006101000a81548160ff0219169083151502179055509050508060040160009054906101000a900473ffffffffffffffffffffffffffffffffffffffff1673ffffffffffffffffffffffffffffffffffffffff166108fc8383600301546105bf9190610f67565b9081150290604051600060405180830381858888f193505050501580156105ea573d6000803e3d6000fd5b507f619f9920b110dd40beb399a4a33eb50fc3fe6a9c3baf31be5e5a568fdac37f776003548433858686600301546106229190610f67565b604051610633959493929190610e36565b60405180910390a1505050565b60016020528060005260406000206000915090508060000154908060010154908060020160009054906101000a900473ffffffffffffffffffffffffffffffffffffffff16908060030154908060040154908060050160009054906101000a900460ff16905086565b600060608060008060008060008089815260200190815260200160002090508060000154816001018260020183600301548460040160009054906101000a900473ffffffffffffffffffffffffffffffffffffffff168560040160149054906101000a900460ff1684805461071d9061104b565b80601f01602080910402602001604051908101604052809291908181526020018280546107499061104b565b80156107965780601f1061076b57610100808354040283529160200191610796565b820191906000526020600020905b81548152906001019060200180831161077957829003601f168201915b505050505094508380546107a99061104b565b80601f01602080910402602001604051908101604052809291908181526020018280546107d59061104b565b80156108225780601f106107f757610100808354040283529160200191610822565b820191906000526020600020905b81548152906001019060200180831161080557829003601f168201915b505050505093509650965096509650965096505091939550919395565b6000806000806000806000600160008981526020019081526020016000209050806000015481600101548260020160009054906101000a900473ffffffffffffffffffffffffffffffffffffffff16836003015484600401548560050160009054906101000a900460ff169650965096509650965096505091939550919395565b60025481565b600260008154809291906108d99061107d565b91905055506040518060c0016040528060025481526020018481526020018381526020018281526020013373ffffffffffffffffffffffffffffffffffffffff168152602001600115158152506000806002548152602001908152602001600020600082015181600001556020820151816001019080519060200190610960929190610a36565b50604082015181600201908051906020019061097d929190610a36565b506060820151816003015560808201518160040160006101000a81548173ffffffffffffffffffffffffffffffffffffffff021916908373ffffffffffffffffffffffffffffffffffffffff16021790555060a08201518160040160146101000a81548160ff0219169083151502179055509050507f52402cafb2ecec722b103e8f203f83362148c168659dc96678c2c6850d12dd9f600254848333604051610a299493929190610dea565b60405180910390a1505050565b828054610a429061104b565b90600052602060002090601f016020900481019282610a645760008555610aab565b82601f10610a7d57805160ff1916838001178555610aab565b82800160010185558215610aab579182015b82811115610aaa578251825591602001919060010190610a8f565b5b509050610ab89190610abc565b5090565b5b80821115610ad5576000816000905550600101610abd565b5090565b6000610aec610ae784610f1b565b610eea565b905082815260208101848484011115610b0457600080fd5b610b0f848285611009565b509392505050565b600082601f830112610b2857600080fd5b8135610b38848260208601610ad9565b91505092915050565b600081359050610b5081611164565b92915050565b600080600060608486031215610b6b57600080fd5b600084013567ffffffffffffffff811115610b8557600080fd5b610b9186828701610b17565b935050602084013567ffffffffffffffff811115610bae57600080fd5b610bba86828701610b17565b9250506040610bcb86828701610b41565b9150509250925092565b600060208284031215610be757600080fd5b6000610bf584828501610b41565b91505092915050565b60008060408385031215610c1157600080fd5b6000610c1f85828601610b41565b9250506020610c3085828601610b41565b9150509250929050565b610c4381610fc1565b82525050565b610c5281610fd3565b82525050565b6000610c6382610f4b565b610c6d8185610f56565b9350610c7d818560208601611018565b610c8681611153565b840191505092915050565b6000610c9e601883610f56565b91507f50726f64756374206973206e6f7420617661696c61626c6500000000000000006000830152602082019050919050565b6000610cde601483610f56565b91507f496e73756666696369656e74207061796d656e740000000000000000000000006000830152602082019050919050565b610d1a81610fff565b82525050565b60006020820190508181036000830152610d3981610c91565b9050919050565b60006020820190508181036000830152610d5981610cd1565b9050919050565b6000602082019050610d756000830184610d11565b92915050565b600060c082019050610d906000830189610d11565b8181036020830152610da28188610c58565b90508181036040830152610db68187610c58565b9050610dc56060830186610d11565b610dd26080830185610c3a565b610ddf60a0830184610c49565b979650505050505050565b6000608082019050610dff6000830187610d11565b8181036020830152610e118186610c58565b9050610e206040830185610d11565b610e2d6060830184610c3a565b95945050505050565b600060a082019050610e4b6000830188610d11565b610e586020830187610d11565b610e656040830186610c3a565b610e726060830185610d11565b610e7f6080830184610d11565b9695505050505050565b600060c082019050610e9e6000830189610d11565b610eab6020830188610d11565b610eb86040830187610c3a565b610ec56060830186610d11565b610ed26080830185610d11565b610edf60a0830184610c49565b979650505050505050565b6000604051905081810181811067ffffffffffffffff82111715610f1157610f10611124565b5b8060405250919050565b600067ffffffffffffffff821115610f3657610f35611124565b5b601f19601f8301169050602081019050919050565b600081519050919050565b600082825260208201905092915050565b6000610f7282610fff565b9150610f7d83610fff565b9250817fffffffffffffffffffffffffffffffffffffffffffffffffffffffffffffffff0483118215151615610fb657610fb56110c6565b5b828202905092915050565b6000610fcc82610fdf565b9050919050565b60008115159050919050565b600073ffffffffffffffffffffffffffffffffffffffff82169050919050565b6000819050919050565b82818337600083830152505050565b60005b8381101561103657808201518184015260208101905061101b565b83811115611045576000848401525b50505050565b6000600282049050600182168061106357607f821691505b60208210811415611077576110766110f5565b5b50919050565b600061108882610fff565b91507fffffffffffffffffffffffffffffffffffffffffffffffffffffffffffffffff8214156110bb576110ba6110c6565b5b600182019050919050565b7f4e487b7100000000000000000000000000000000000000000000000000000000600052601160045260246000fd5b7f4e487b7100000000000000000000000000000000000000000000000000000000600052602260045260246000fd5b7f4e487b7100000000000000000000000000000000000000000000000000000000600052604160045260246000fd5b6000601f19601f8301169050919050565b61116d81610fff565b811461117857600080fd5b5056fea264697066735822122020a1da8521747ef11ff0d8875ec47bf371e50e6e78f3e650d93a800e93dd7d0d64736f6c63430008000033",
  "immutableReferences": {},
  "source": "// SPDX-License-Identifier: MIT\npragma solidity ^0.8.0;\n\ncontract ECommerce {\n    struct Product {\n        uint id;\n        string name;\n        string description;\n        uint price;\n        address seller;\n        bool isAvailable;\n    }\n\n    struct Order {\n        uint id;\n        uint productId;\n        address buyer;\n        uint quantity;\n        uint totalPrice;\n        bool isCompleted;\n    }\n\n    mapping(uint => Product) public products;\n    mapping(uint => Order) public orders;\n    uint public productCount;\n    uint public orderCount;\n\n    event ProductAdded(uint id, string name, uint price, address seller);\n    event ProductPurchased(uint orderId, uint productId, address buyer, uint quantity, uint totalPrice);\n\n    function addProduct(string memory _name, string memory _description, uint _price) public {\n        productCount++;\n        products[productCount] = Product(\n            productCount,\n            _name,\n            _description,\n            _price,\n            msg.sender,\n            true\n        );\n        emit ProductAdded(productCount, _name, _price, msg.sender);\n    }\n\n    function purchaseProduct(uint _productId, uint _quantity) public payable {\n        Product storage product = products[_productId];\n        require(product.isAvailable, \"Product is not available\");\n        require(msg.value >= product.price * _quantity, \"Insufficient payment\");\n\n        orderCount++;\n        orders[orderCount] = Order(\n            orderCount,\n            _productId,\n            msg.sender,\n            _quantity,\n            product.price * _quantity,\n            true\n        );\n\n        // Transfer funds to seller\n        payable(product.seller).transfer(product.price * _quantity);\n        \n        emit ProductPurchased(orderCount, _productId, msg.sender, _quantity, product.price * _quantity);\n    }\n\n    function getProduct(uint _productId) public view returns (\n        uint id,\n        string memory name,\n        string memory description,\n        uint price,\n        address seller,\n        bool isAvailable\n    ) {\n        Product storage product = products[_productId];\n        return (\n            product.id,\n            product.name,\n            product.description,\n            product.price,\n            product.seller,\n            product.isAvailable\n        );\n    }\n\n    function getOrder(uint _orderId) public view returns (\n        uint id,\n        uint productId,\n        address buyer,\n        uint quantity,\n        uint totalPrice,\n        bool isCompleted\n    ) {\n        Order storage order = orders[_orderId];\n        return (\n            order.id,\n            order.productId,\n            order.buyer,\n            order.quantity,\n            order.totalPrice,\n            order.isCompleted\n        );\n    }\n} ",
  "sourcePath": "/Users/umair/E-Commerce/contracts/ECommerce.sol",
  "compiler": {
    "name": "solc",
    "version": "0.8.0+commit.c7dfd78e.Emscripten.clang"
  },
  "schemaVersion": "3.4.16",
  "updatedAt": "2025-04-15T19:12:54.019Z",
  "devdoc": {
    "kind": "dev",
    "methods": {},
    "version": 1
  },
  "userdoc": {
    "kind": "user",
    "methods": {},
    "version": 1
  }
}